{
  "_format": "hh-sol-artifact-1",
  "contractName": "Escrow",
  "sourceName": "contracts/Escrow.sol",
  "abi": [
    {
      "inputs": [
        {
          "internalType": "address",
          "name": "_nftAddress",
          "type": "address"
        },
        {
          "internalType": "address payable",
          "name": "_seller",
          "type": "address"
        },
        {
          "internalType": "address",
          "name": "_inspector",
          "type": "address"
        },
        {
          "internalType": "address",
          "name": "_lender",
          "type": "address"
        }
      ],
      "stateMutability": "nonpayable",
      "type": "constructor"
    },
    {
      "inputs": [
        {
          "internalType": "uint256",
          "name": "",
          "type": "uint256"
        },
        {
          "internalType": "address",
          "name": "",
          "type": "address"
        }
      ],
      "name": "approval",
      "outputs": [
        {
          "internalType": "bool",
          "name": "",
          "type": "bool"
        }
      ],
      "stateMutability": "view",
      "type": "function"
    },
    {
      "inputs": [
        {
          "internalType": "uint256",
          "name": "_nftID",
          "type": "uint256"
        }
      ],
      "name": "approveSale",
      "outputs": [],
      "stateMutability": "nonpayable",
      "type": "function"
    },
    {
      "inputs": [
        {
          "internalType": "uint256",
          "name": "",
          "type": "uint256"
        }
      ],
      "name": "buyer",
      "outputs": [
        {
          "internalType": "address",
          "name": "",
          "type": "address"
        }
      ],
      "stateMutability": "view",
      "type": "function"
    },
    {
      "inputs": [
        {
          "internalType": "uint256",
          "name": "_nftID",
          "type": "uint256"
        }
      ],
      "name": "depositEarnest",
      "outputs": [],
      "stateMutability": "payable",
      "type": "function"
    },
    {
      "inputs": [
        {
          "internalType": "uint256",
          "name": "",
          "type": "uint256"
        }
      ],
      "name": "escrowAmount",
      "outputs": [
        {
          "internalType": "uint256",
          "name": "",
          "type": "uint256"
        }
      ],
      "stateMutability": "view",
      "type": "function"
    },
    {
      "inputs": [],
      "name": "getBalance",
      "outputs": [
        {
          "internalType": "uint256",
          "name": "",
          "type": "uint256"
        }
      ],
      "stateMutability": "view",
      "type": "function"
    },
    {
      "inputs": [
        {
          "internalType": "uint256",
          "name": "",
          "type": "uint256"
        }
      ],
      "name": "inspectionPassed",
      "outputs": [
        {
          "internalType": "bool",
          "name": "",
          "type": "bool"
        }
      ],
      "stateMutability": "view",
      "type": "function"
    },
    {
      "inputs": [],
      "name": "inspector",
      "outputs": [
        {
          "internalType": "address",
          "name": "",
          "type": "address"
        }
      ],
      "stateMutability": "view",
      "type": "function"
    },
    {
      "inputs": [
        {
          "internalType": "uint256",
          "name": "",
          "type": "uint256"
        }
      ],
      "name": "isListed",
      "outputs": [
        {
          "internalType": "bool",
          "name": "",
          "type": "bool"
        }
      ],
      "stateMutability": "view",
      "type": "function"
    },
    {
      "inputs": [],
      "name": "lender",
      "outputs": [
        {
          "internalType": "address",
          "name": "",
          "type": "address"
        }
      ],
      "stateMutability": "view",
      "type": "function"
    },
    {
      "inputs": [
        {
          "internalType": "uint256",
          "name": "_nftID",
          "type": "uint256"
        },
        {
          "internalType": "address",
          "name": "_buyer",
          "type": "address"
        },
        {
          "internalType": "uint256",
          "name": "_purchasePrice",
          "type": "uint256"
        },
        {
          "internalType": "uint256",
          "name": "_escrowAmount",
          "type": "uint256"
        }
      ],
      "name": "list",
      "outputs": [],
      "stateMutability": "payable",
      "type": "function"
    },
    {
      "inputs": [],
      "name": "nftAddress",
      "outputs": [
        {
          "internalType": "address",
          "name": "",
          "type": "address"
        }
      ],
      "stateMutability": "view",
      "type": "function"
    },
    {
      "inputs": [
        {
          "internalType": "uint256",
          "name": "",
          "type": "uint256"
        }
      ],
      "name": "purchasePrice",
      "outputs": [
        {
          "internalType": "uint256",
          "name": "",
          "type": "uint256"
        }
      ],
      "stateMutability": "view",
      "type": "function"
    },
    {
      "inputs": [],
      "name": "seller",
      "outputs": [
        {
          "internalType": "address payable",
          "name": "",
          "type": "address"
        }
      ],
      "stateMutability": "view",
      "type": "function"
    },
    {
      "inputs": [
        {
          "internalType": "uint256",
          "name": "_nftID",
          "type": "uint256"
        },
        {
          "internalType": "bool",
          "name": "_passed",
          "type": "bool"
        }
      ],
      "name": "updateInspectionStatus",
      "outputs": [],
      "stateMutability": "nonpayable",
      "type": "function"
    },
    {
      "stateMutability": "payable",
      "type": "receive"
    }
  ],
  "bytecode": "0x60806040523480156200001157600080fd5b5060405162000ff738038062000ff78339818101604052810190620000379190620001f3565b836000806101000a81548173ffffffffffffffffffffffffffffffffffffffff021916908373ffffffffffffffffffffffffffffffffffffffff16021790555082600160006101000a81548173ffffffffffffffffffffffffffffffffffffffff021916908373ffffffffffffffffffffffffffffffffffffffff16021790555081600260006101000a81548173ffffffffffffffffffffffffffffffffffffffff021916908373ffffffffffffffffffffffffffffffffffffffff16021790555080600360006101000a81548173ffffffffffffffffffffffffffffffffffffffff021916908373ffffffffffffffffffffffffffffffffffffffff1602179055505050505062000265565b600080fd5b600073ffffffffffffffffffffffffffffffffffffffff82169050919050565b6000620001768262000149565b9050919050565b620001888162000169565b81146200019457600080fd5b50565b600081519050620001a8816200017d565b92915050565b6000620001bb8262000149565b9050919050565b620001cd81620001ae565b8114620001d957600080fd5b50565b600081519050620001ed81620001c2565b92915050565b6000806000806080858703121562000210576200020f62000144565b5b6000620002208782880162000197565b94505060206200023387828801620001dc565b9350506040620002468782880162000197565b9250506060620002598782880162000197565b91505092959194509250565b610d8280620002756000396000f3fe6080604052600436106100ec5760003560e01c806377fbc4ae1161008a578063c9f0ec7e11610059578063c9f0ec7e14610327578063e740f77014610343578063ed2cee9e1461035f578063fcce48831461038a576100f3565b806377fbc4ae146102595780639d0e5fd614610296578063b848de35146102bf578063bcead63e146102fc576100f3565b80634dd4acaf116100c65780634dd4acaf146101775780635bf8633a146101b45780635d19e56c146101df5780635eed5fff1461021c576100f3565b806308551a53146100f857806312065fe01461012357806314a72feb1461014e576100f3565b366100f357005b600080fd5b34801561010457600080fd5b5061010d6103c7565b60405161011a919061093c565b60405180910390f35b34801561012f57600080fd5b506101386103ed565b6040516101459190610970565b60405180910390f35b34801561015a57600080fd5b50610175600480360381019061017091906109bc565b6103f5565b005b34801561018357600080fd5b5061019e600480360381019061019991906109bc565b610461565b6040516101ab9190610a0a565b60405180910390f35b3480156101c057600080fd5b506101c9610494565b6040516101d69190610a0a565b60405180910390f35b3480156101eb57600080fd5b50610206600480360381019061020191906109bc565b6104b8565b6040516102139190610970565b60405180910390f35b34801561022857600080fd5b50610243600480360381019061023e91906109bc565b6104d0565b6040516102509190610a40565b60405180910390f35b34801561026557600080fd5b50610280600480360381019061027b91906109bc565b6104f0565b60405161028d9190610970565b60405180910390f35b3480156102a257600080fd5b506102bd60048036038101906102b89190610a87565b610508565b005b3480156102cb57600080fd5b506102e660048036038101906102e19190610af3565b6105c7565b6040516102f39190610a40565b60405180910390f35b34801561030857600080fd5b506103116105f6565b60405161031e9190610a0a565b60405180910390f35b610341600480360381019061033c9190610b33565b61061c565b005b61035d600480360381019061035891906109bc565b6107ef565b005b34801561036b57600080fd5b506103746108b5565b6040516103819190610a0a565b60405180910390f35b34801561039657600080fd5b506103b160048036038101906103ac91906109bc565b6108db565b6040516103be9190610a40565b60405180910390f35b600160009054906101000a900473ffffffffffffffffffffffffffffffffffffffff1681565b600047905090565b60016009600083815260200190815260200160002060003373ffffffffffffffffffffffffffffffffffffffff1673ffffffffffffffffffffffffffffffffffffffff16815260200190815260200160002060006101000a81548160ff02191690831515021790555050565b60076020528060005260406000206000915054906101000a900473ffffffffffffffffffffffffffffffffffffffff1681565b60008054906101000a900473ffffffffffffffffffffffffffffffffffffffff1681565b60066020528060005260406000206000915090505481565b60086020528060005260406000206000915054906101000a900460ff1681565b60056020528060005260406000206000915090505481565b600260009054906101000a900473ffffffffffffffffffffffffffffffffffffffff1673ffffffffffffffffffffffffffffffffffffffff163373ffffffffffffffffffffffffffffffffffffffff1614610598576040517f08c379a000000000000000000000000000000000000000000000000000000000815260040161058f90610c1d565b60405180910390fd5b806008600084815260200190815260200160002060006101000a81548160ff0219169083151502179055505050565b60096020528160005260406000206020528060005260406000206000915091509054906101000a900460ff1681565b600360009054906101000a900473ffffffffffffffffffffffffffffffffffffffff1681565b600160009054906101000a900473ffffffffffffffffffffffffffffffffffffffff1673ffffffffffffffffffffffffffffffffffffffff163373ffffffffffffffffffffffffffffffffffffffff16146106ac576040517f08c379a00000000000000000000000000000000000000000000000000000000081526004016106a390610c89565b60405180910390fd5b60008054906101000a900473ffffffffffffffffffffffffffffffffffffffff1673ffffffffffffffffffffffffffffffffffffffff166323b872dd3330876040518463ffffffff1660e01b815260040161070993929190610ca9565b600060405180830381600087803b15801561072357600080fd5b505af1158015610737573d6000803e3d6000fd5b5050505060016004600086815260200190815260200160002060006101000a81548160ff021916908315150217905550816005600086815260200190815260200160002081905550806006600086815260200190815260200160002081905550826007600086815260200190815260200160002060006101000a81548173ffffffffffffffffffffffffffffffffffffffff021916908373ffffffffffffffffffffffffffffffffffffffff16021790555050505050565b806007600082815260200190815260200160002060009054906101000a900473ffffffffffffffffffffffffffffffffffffffff1673ffffffffffffffffffffffffffffffffffffffff163373ffffffffffffffffffffffffffffffffffffffff1614610891576040517f08c379a000000000000000000000000000000000000000000000000000000000815260040161088890610d2c565b60405180910390fd5b60066000838152602001908152602001600020543410156108b157600080fd5b5050565b600260009054906101000a900473ffffffffffffffffffffffffffffffffffffffff1681565b60046020528060005260406000206000915054906101000a900460ff1681565b600073ffffffffffffffffffffffffffffffffffffffff82169050919050565b6000610926826108fb565b9050919050565b6109368161091b565b82525050565b6000602082019050610951600083018461092d565b92915050565b6000819050919050565b61096a81610957565b82525050565b60006020820190506109856000830184610961565b92915050565b600080fd5b61099981610957565b81146109a457600080fd5b50565b6000813590506109b681610990565b92915050565b6000602082840312156109d2576109d161098b565b5b60006109e0848285016109a7565b91505092915050565b60006109f4826108fb565b9050919050565b610a04816109e9565b82525050565b6000602082019050610a1f60008301846109fb565b92915050565b60008115159050919050565b610a3a81610a25565b82525050565b6000602082019050610a556000830184610a31565b92915050565b610a6481610a25565b8114610a6f57600080fd5b50565b600081359050610a8181610a5b565b92915050565b60008060408385031215610a9e57610a9d61098b565b5b6000610aac858286016109a7565b9250506020610abd85828601610a72565b9150509250929050565b610ad0816109e9565b8114610adb57600080fd5b50565b600081359050610aed81610ac7565b92915050565b60008060408385031215610b0a57610b0961098b565b5b6000610b18858286016109a7565b9250506020610b2985828601610ade565b9150509250929050565b60008060008060808587031215610b4d57610b4c61098b565b5b6000610b5b878288016109a7565b9450506020610b6c87828801610ade565b9350506040610b7d878288016109a7565b9250506060610b8e878288016109a7565b91505092959194509250565b600082825260208201905092915050565b7f4f6e6c7920696e73706563746f722063616e2063616c6c2074686973206d657460008201527f686f640000000000000000000000000000000000000000000000000000000000602082015250565b6000610c07602383610b9a565b9150610c1282610bab565b604082019050919050565b60006020820190508181036000830152610c3681610bfa565b9050919050565b7f4f6e6c792073656c6c65722063616e2063616c6c2074686973206d6574686f64600082015250565b6000610c73602083610b9a565b9150610c7e82610c3d565b602082019050919050565b60006020820190508181036000830152610ca281610c66565b9050919050565b6000606082019050610cbe60008301866109fb565b610ccb60208301856109fb565b610cd86040830184610961565b949350505050565b7f4f6e6c792062757965722063616e2063616c6c2074686973206d6574686f6400600082015250565b6000610d16601f83610b9a565b9150610d2182610ce0565b602082019050919050565b60006020820190508181036000830152610d4581610d09565b905091905056fea26469706673582212201decf817708aba2ae5ded697b995be26458f0b09c199b51ef247dd45c78c05e264736f6c63430008110033",
  "linkReferences": {},
  "deployedLinkReferences": {}
}