{
  "_format": "hh-sol-artifact-1",
  "contractName": "Escrow",
  "sourceName": "contracts/Escrow.sol",
  "abi": [
    {
      "inputs": [
        {
          "internalType": "address",
          "name": "_nftAddress",
          "type": "address"
        },
        {
          "internalType": "address payable",
          "name": "_seller",
          "type": "address"
        },
        {
          "internalType": "address",
          "name": "_inspector",
          "type": "address"
        },
        {
          "internalType": "address",
          "name": "_lender",
          "type": "address"
        }
      ],
      "stateMutability": "nonpayable",
      "type": "constructor"
    },
    {
      "inputs": [
        {
          "internalType": "uint256",
          "name": "",
          "type": "uint256"
        }
      ],
      "name": "buyer",
      "outputs": [
        {
          "internalType": "address",
          "name": "",
          "type": "address"
        }
      ],
      "stateMutability": "view",
      "type": "function"
    },
    {
      "inputs": [
        {
          "internalType": "uint256",
          "name": "",
          "type": "uint256"
        }
      ],
      "name": "escrowAmount",
      "outputs": [
        {
          "internalType": "uint256",
          "name": "",
          "type": "uint256"
        }
      ],
      "stateMutability": "view",
      "type": "function"
    },
    {
      "inputs": [],
      "name": "inspector",
      "outputs": [
        {
          "internalType": "address",
          "name": "",
          "type": "address"
        }
      ],
      "stateMutability": "view",
      "type": "function"
    },
    {
      "inputs": [
        {
          "internalType": "uint256",
          "name": "",
          "type": "uint256"
        }
      ],
      "name": "isListed",
      "outputs": [
        {
          "internalType": "bool",
          "name": "",
          "type": "bool"
        }
      ],
      "stateMutability": "view",
      "type": "function"
    },
    {
      "inputs": [],
      "name": "lender",
      "outputs": [
        {
          "internalType": "address",
          "name": "",
          "type": "address"
        }
      ],
      "stateMutability": "view",
      "type": "function"
    },
    {
      "inputs": [
        {
          "internalType": "uint256",
          "name": "_nftID",
          "type": "uint256"
        },
        {
          "internalType": "address",
          "name": "_buyer",
          "type": "address"
        },
        {
          "internalType": "uint256",
          "name": "_purchasePrice",
          "type": "uint256"
        },
        {
          "internalType": "uint256",
          "name": "_escrowAmount",
          "type": "uint256"
        }
      ],
      "name": "list",
      "outputs": [],
      "stateMutability": "payable",
      "type": "function"
    },
    {
      "inputs": [],
      "name": "nftAddress",
      "outputs": [
        {
          "internalType": "address",
          "name": "",
          "type": "address"
        }
      ],
      "stateMutability": "view",
      "type": "function"
    },
    {
      "inputs": [
        {
          "internalType": "uint256",
          "name": "",
          "type": "uint256"
        }
      ],
      "name": "purchasePrice",
      "outputs": [
        {
          "internalType": "uint256",
          "name": "",
          "type": "uint256"
        }
      ],
      "stateMutability": "view",
      "type": "function"
    },
    {
      "inputs": [],
      "name": "seller",
      "outputs": [
        {
          "internalType": "address payable",
          "name": "",
          "type": "address"
        }
      ],
      "stateMutability": "view",
      "type": "function"
    }
  ],
  "bytecode": "0x608060405234801561001057600080fd5b50604051610a65380380610a65833981810160405281019061003291906101df565b836000806101000a81548173ffffffffffffffffffffffffffffffffffffffff021916908373ffffffffffffffffffffffffffffffffffffffff16021790555082600160006101000a81548173ffffffffffffffffffffffffffffffffffffffff021916908373ffffffffffffffffffffffffffffffffffffffff16021790555081600260006101000a81548173ffffffffffffffffffffffffffffffffffffffff021916908373ffffffffffffffffffffffffffffffffffffffff16021790555080600360006101000a81548173ffffffffffffffffffffffffffffffffffffffff021916908373ffffffffffffffffffffffffffffffffffffffff16021790555050505050610246565b600080fd5b600073ffffffffffffffffffffffffffffffffffffffff82169050919050565b600061016e82610143565b9050919050565b61017e81610163565b811461018957600080fd5b50565b60008151905061019b81610175565b92915050565b60006101ac82610143565b9050919050565b6101bc816101a1565b81146101c757600080fd5b50565b6000815190506101d9816101b3565b92915050565b600080600080608085870312156101f9576101f861013e565b5b60006102078782880161018c565b9450506020610218878288016101ca565b93505060406102298782880161018c565b925050606061023a8782880161018c565b91505092959194509250565b610810806102556000396000f3fe6080604052600436106100865760003560e01c806377fbc4ae1161005957806377fbc4ae1461015b578063bcead63e14610198578063c9f0ec7e146101c3578063ed2cee9e146101df578063fcce48831461020a57610086565b806308551a531461008b5780634dd4acaf146100b65780635bf8633a146100f35780635d19e56c1461011e575b600080fd5b34801561009757600080fd5b506100a0610247565b6040516100ad9190610574565b60405180910390f35b3480156100c257600080fd5b506100dd60048036038101906100d891906105ca565b61026d565b6040516100ea9190610618565b60405180910390f35b3480156100ff57600080fd5b506101086102a0565b6040516101159190610618565b60405180910390f35b34801561012a57600080fd5b50610145600480360381019061014091906105ca565b6102c4565b6040516101529190610642565b60405180910390f35b34801561016757600080fd5b50610182600480360381019061017d91906105ca565b6102dc565b60405161018f9190610642565b60405180910390f35b3480156101a457600080fd5b506101ad6102f4565b6040516101ba9190610618565b60405180910390f35b6101dd60048036038101906101d89190610689565b61031a565b005b3480156101eb57600080fd5b506101f46104ed565b6040516102019190610618565b60405180910390f35b34801561021657600080fd5b50610231600480360381019061022c91906105ca565b610513565b60405161023e919061070b565b60405180910390f35b600160009054906101000a900473ffffffffffffffffffffffffffffffffffffffff1681565b60076020528060005260406000206000915054906101000a900473ffffffffffffffffffffffffffffffffffffffff1681565b60008054906101000a900473ffffffffffffffffffffffffffffffffffffffff1681565b60066020528060005260406000206000915090505481565b60056020528060005260406000206000915090505481565b600360009054906101000a900473ffffffffffffffffffffffffffffffffffffffff1681565b600160009054906101000a900473ffffffffffffffffffffffffffffffffffffffff1673ffffffffffffffffffffffffffffffffffffffff163373ffffffffffffffffffffffffffffffffffffffff16146103aa576040517f08c379a00000000000000000000000000000000000000000000000000000000081526004016103a190610783565b60405180910390fd5b60008054906101000a900473ffffffffffffffffffffffffffffffffffffffff1673ffffffffffffffffffffffffffffffffffffffff166323b872dd3330876040518463ffffffff1660e01b8152600401610407939291906107a3565b600060405180830381600087803b15801561042157600080fd5b505af1158015610435573d6000803e3d6000fd5b5050505060016004600086815260200190815260200160002060006101000a81548160ff021916908315150217905550816005600086815260200190815260200160002081905550806006600086815260200190815260200160002081905550826007600086815260200190815260200160002060006101000a81548173ffffffffffffffffffffffffffffffffffffffff021916908373ffffffffffffffffffffffffffffffffffffffff16021790555050505050565b600260009054906101000a900473ffffffffffffffffffffffffffffffffffffffff1681565b60046020528060005260406000206000915054906101000a900460ff1681565b600073ffffffffffffffffffffffffffffffffffffffff82169050919050565b600061055e82610533565b9050919050565b61056e81610553565b82525050565b60006020820190506105896000830184610565565b92915050565b600080fd5b6000819050919050565b6105a781610594565b81146105b257600080fd5b50565b6000813590506105c48161059e565b92915050565b6000602082840312156105e0576105df61058f565b5b60006105ee848285016105b5565b91505092915050565b600061060282610533565b9050919050565b610612816105f7565b82525050565b600060208201905061062d6000830184610609565b92915050565b61063c81610594565b82525050565b60006020820190506106576000830184610633565b92915050565b610666816105f7565b811461067157600080fd5b50565b6000813590506106838161065d565b92915050565b600080600080608085870312156106a3576106a261058f565b5b60006106b1878288016105b5565b94505060206106c287828801610674565b93505060406106d3878288016105b5565b92505060606106e4878288016105b5565b91505092959194509250565b60008115159050919050565b610705816106f0565b82525050565b600060208201905061072060008301846106fc565b92915050565b600082825260208201905092915050565b7f4f6e6c792073656c6c65722063616e2063616c6c2074686973206d6574686f64600082015250565b600061076d602083610726565b915061077882610737565b602082019050919050565b6000602082019050818103600083015261079c81610760565b9050919050565b60006060820190506107b86000830186610609565b6107c56020830185610609565b6107d26040830184610633565b94935050505056fea2646970667358221220d540313b379c30bba8e436894544e5e1ee54327f7fa28a9ec88a93b7451e56ca64736f6c63430008110033",
  "linkReferences": {},
  "deployedLinkReferences": {}
}